:020000040800F2
:1000000028080020D50100080B2600080326000858
:100010000726000851060008AD290008000000006E
:100020000000000000000000000000004127000860
:1000300045070008000000000D26000843270008BF
:10004000EF010008EF010008EF010008EF010008D0
:10005000EF010008EF010008EF010008EF010008C0
:10006000EF010008EF010008EF010008EF010008B0
:10007000EF010008EF010008EF010008EF010008A0
:10008000EF010008EF010008EF010008EF01000890
:10009000EF010008EF010008EF010008EF01000880
:1000A000EF010008EF010008EF010008EF01000870
:1000B000EF010008EF010008EF010008EF01000860
:1000C000EF010008EF010008EF010008EF01000850
:1000D000EF0100089D290008EF010008EF0100086A
:1000E000EF010008EF010008EF010008EF01000830
:1000F000EF010008EF010008EF010008EF01000820
:10010000EF010008EF010008EF010008EF0100080F
:10011000EF010008EF010008EF010008EF010008FF
:10012000EF010008EF010008EF010008EF010008EF
:1001300000F002F800F03FF80AA090E8000C8244BA
:100140008344AAF10107DA4501D100F034F8AFF297
:10015000090EBAE80F0013F0010F18BFFB1A43F0A5
:10016000010318479CB20000BCB20000103A24BF43
:1001700078C878C1FAD8520724BF30C830C144BF0C
:1001800004680C607047000000230024002500264E
:10019000103A28BF78C1FBD8520728BF30C148BFEA
:1001A0000B607047782900F07780002070471FB5FA
:1001B0001FBD10B510BD00F04DF91146FFF7F7FF58
:1001C00007F0C2FE00F06BF903B4FFF7F2FF03BCC7
:1001D00002F00AFC0948804709480047FEE7FEE7AD
:1001E000FEE7FEE7FEE7FEE7FEE7FEE7FEE7FEE7E7
:1001F00004480549054A064B704700004B27000894
:1002000031010008280200202808002028040020CE
:1002100028040020704700000FB4044910B503AA59
:10022000029800F0E9F810BC5DF814FB080000200B
:100230002DE9F0410E460446002020622046E16888
:10024000884730B3252805D0D4E901219047206A9A
:10025000401CF2E7E168204600278847050018D0D7
:10026000A5F14100192802D820354FF40067324625
:10027000294620462760FFF795FF40B1012804D0AA
:10028000F61D26F007060836D8E7361DD6E72846BD
:10029000DAE7206ABDE8F08170B504460D462146D4
:1002A0001068AFF300802188090502D50F4A7A440F
:1002B00002E00E4A7A440E32002104F1240305E0E4
:1002C00000F00F060009965D5E54491C0028F7D126
:1002D00020780023000704D5702D02D009B1022335
:1002E00011322046BDE8704000F02DB826B1000064
:1002F0004FF0000200B5134694469646203922BFBF
:10030000A0E80C50A0E80C50B1F12001BFF4F7AF09
:10031000090728BFA0E80C5048BF0CC05DF804EBEB
:10032000890028BF40F8042B08BF704748BF20F859
:10033000022B11F0804F18BF00F8012B7047704757
:100340007047704770472DE9F0470D469946924631
:10035000044600F124080168880604D5E06921F00C
:100360001001216000E00120A84201DD471B00E0F0
:100370000027A1697A1902EB0900081AA061207808
:10038000C00602D42046AFF30080002608E0D4E97E
:1003900001211AF806009047206A401C761C206252
:1003A0004E45F4DB2078C0060AD52046AFF3008026
:1003B00006E0D4E9012130209047206A401C2062E9
:1003C000381EA7F10107F4DC07E0D4E9012118F891
:1003D00005009047206A401C2062281EA5F10105F7
:1003E000F3DC2046AFF300802078000602D502201F
:1003F000BDE8F0870120FBE7074B70B50D467B4455
:1004000000F011F80446284600F020F810B14FF033
:10041000FF3070BD204670BD0327000001694A1CF3
:1004200002610878704700B58FB0CDE90131002135
:10043000059105497944CDE9031011466846FFF757
:10044000F7FE0FB000BD0000E5FFFFFF007B00F0EE
:1004500080007047754600F02BF8AE4605006946EF
:10046000534620F00700854618B020B5FFF7C0FEC0
:10047000BDE820404FF000064FF000074FF00008A5
:100480004FF0000B21F00701AC46ACE8C009ACE826
:10049000C009ACE8C009ACE8C0098D46704710B58A
:1004A0000446AFF300802046BDE81040FFF78CBE45
:1004B00000487047C801002070B504460025206838
:1004C000806800F00100F0B12068806820F0010031
:1004D0002168886000F034FF05460EE000F030FF30
:1004E000401B022809D9A06A40F01000A062E06A0F
:1004F00040F00100E062012070BD2068806800F0DB
:1005000001000028EAD10020F6E7000038B50446D3
:100510000025002000902068806800F0010080BB6A
:100520002068806840F001002168886016480068F3
:100530001649B0FBF1F0009002E00098401E0090D8
:1005400000980028F9D100F0FBFE054613E000F00A
:10055000F7FE401B02280ED9A06A40F01000A062EE
:10056000E06A40F00100E06200BF002084F824004F
:1005700000BF012038BD2068806800F0010000281D
:10058000E5D00020F6E700000000002040420F0008
:1005900038B504460020009000224FF4006117484F
:1005A00000F0C8FE200A07F0ADFDE0B207F0AAFD9A
:1005B0000122D102114800F0BDFE322002F074FA8F
:1005C00000224FF400610D4800F0B4FE200A07F04D
:1005D00099FD8DF80000E0B207F094FD8DF8010060
:1005E0000122D102054800F0A5FE9DF801009DF80A
:1005F000001040EA012000B238BD000000080140B0
:1006000000B585B000BF00BF0F48806940F004000E
:100610000D4988610846806900F00400009000BF21
:1006200000BF00BFC8140190012002900390022077
:10063000049001A9054800F0D3FC0122D10203482F
:1006400000F078FE05B000BD001002400008014037
:1006500000BFFEE700B585B000BF00BF104880694D
:1006600040F004000E4988610846806900F00400EB
:10067000009000BF00BF00BF082001900120029041
:1006800003900220049001A9064800F0A9FC012271
:100690000821044800F04EFE07F0F8FC05B000BD4C
:1006A00000100240000801402DE9F04107461048C3
:1006B0000088384404B241F28830844201DD0446A7
:1006C00003E00C48844200DA0446C4EB044042F2E2
:1006D000107190FBF1F005B2294607A0FFF79CFDD1
:1006E0004FF6FF76304600F00BF8BDE8F0810000D1
:1006F0002400002078ECFFFF25780D0A00000000A0
:1007000010B5044621460BA0FFF786FD0022082104
:100710000B4800F00FFE002007F0F4FC200A07F061
:10072000F1FCE0B207F0EEFC01220821044800F0E1
:1007300001FE10BD3132333A25780D0A0000000069
:100740000008014070470000F8B50446002600206C
:10075000009000BF94F82400012801D10220F8BDC8
:10076000012084F8240000BF2046FFF7A5FE0646BE
:10077000002E62D1A06A20F4885040F00200A062EE
:10078000022000F08DFE30490968B1FBF0F0400016
:10079000009002E00098401E009000980028F9D1D7
:1007A0002046FFF7B3FE2068806840F0080021680B
:1007B000886000F0C5FD054611E000F0C1FD401B5A
:1007C0000A280CD9A06A20F0020040F01000A062B4
:1007D00000BF002084F8240000BF0120BFE720688C
:1007E000806800F008000028E7D12068806840F0A9
:1007F00004002168886000F0A3FD054611E000F0C8
:100800009FFD401B0A280CD9A06A20F0020040F08E
:100810001000A06200BF002084F8240000BF012067
:100820009DE72068806800F004000028E7D1A06AF6
:1008300020F0020040F00100A06200BF002084F818
:10084000240000BF30468AE70000002038B5024689
:1008500000230020009000BF92F82400012801D15D
:10086000022038BD012082F8240000BF4868072814
:1008700012D21068406B0C79641E04EB84051F24AF
:10088000AC40A0430D796D1E05EB85050C68AC40AE
:1008900020431468606327E048680D2812D210686E
:1008A000006B0C79E41F04EB84051F24AC40A043CB
:1008B0000D79ED1F05EB85050C68AC4020431468ED
:1008C000206311E01068C06A0C790D3C04EB8405CC
:1008D0001F24AC40A0430D790D3D05EB85050C6848
:1008E000AC4020431468E06208680A2812D31068FC
:1008F000C0680C780A3C04EB44050724AC40A043D4
:100900000D780A3D05EB45058C68AC402043146822
:10091000E0600FE0106800690C7804EB44050724E0
:10092000AC40A0430D7805EB45058C68AC402043F6
:10093000146820610868102802D00868112827D19F
:10094000174C1068A0421ED11068806800F40000A7
:10095000F0B91068806840F400001468A06008686E
:10096000102815D10F4800680F4CB0FBF4F000EBD5
:1009700080004000009002E00098401E0090009827
:100980000028F9D104E0906A40F020009062012331
:1009900000BF002082F8240000BF184661E7000075
:1009A000002401400000002040420F00014608687A
:1009B000C06C70472DE9F041044600270025002651
:1009C000A84614B90120BDE8F081A06810B1207DCF
:1009D00000B100BFA06A30B90020E06284F82400B2
:1009E000204600F097F82046FFF766FD0746A06A0C
:1009F00000F01000002873D1002F7ED1A06A20F4EF
:100A0000885040F00200A0623F4AD4E900019042C1
:100A100008D1E069B0F5402F02D14FF4002002E088
:100A2000E06900E0E0690143207B41EA40000643C1
:100A3000A068B0F5807F02D0A068012802D14FF4F1
:100A4000807000E000200543207D012811D1207B2B
:100A500038B9A069401E4FF4006141EA40300543B7
:100A600007E0A06A40F02000A062E06A40F00100C8
:100A7000E0622068406820F46940284321684860AB
:100A80002068806821490840304321688860A06858
:100A9000B0F5807F02D0A068012802D14FF48070A9
:100AA00000E00020B0F5807F03D1208A401E4FEA8D
:100AB00000582068C06A20F4700040EA08002168ED
:100AC000C8622068806812490840B04209D10020FD
:100AD000E062A06A20F0020040F00100A06211E094
:100AE0000BE0A06A20F0020040F01000A062E06A73
:100AF00040F00100E062012704E0A06A40F010002D
:100B0000A062012738465EE7003C0140FDF7E1FFA7
:100B1000FE0E1FFF10B58CB004461C4920688842A9
:100B200032D1182102A8FFF7E3FB00BF00BF18482D
:100B3000806940F40070164988610846806900F4B5
:100B40000070019000BF00BF00BF00BF00BF08469B
:100B5000806940F0100088610846806900F010004C
:100B6000019000BF00BF00BF0220029080030490EC
:100B700002A800F02FFD102008900320099008A97A
:100B8000044800F02DFA00BF0CB010BD0024014055
:100B90000010024000100140F8B504460D46002642
:100BA00000200090002700F0CBFB064620688068FC
:100BB00000F4807050B1A06A40F02000A06200BF35
:100BC000002084F8240000BF0120F8BD20684068A0
:100BD00000F48070F8B92068C06A00F47000D0B9E1
:100BE00012E0681C80B125B100F0AAFB801BA8426E
:100BF0000AD9A06A40F00400A06200BF002084F877
:100C0000240000BF0320E0E72068006800F0020035
:100C10000028E6D050E0022000F042FC3649096886
:100C2000B1FBF0F021680969344A114091B921689B
:100C3000C9689211114069B921680969304A1140A7
:100C400031B92168C9689211114009B9142117E01E
:100C5000292115E021680969294A114021B9216833
:100C6000C9689211114041B121680969254A1140B2
:100C700029B92168C968114009B9542100E0FC2153
:100C800000FB01F715E0681C80B125B100F058FBAE
:100C9000801BA8420AD9A06A40F00400A06200BFED
:100CA000002084F8240000BF03208EE70098401C39
:100CB00000900098B842E6D36FF0120021680860F7
:100CC000A06A40F40070A0622068806800F4602090
:100CD000B0F5602F0DD1207B58B9A06A20F4807048
:100CE000A062A06A00F4805018B9A06A40F0010028
:100CF000A062002069E7000000000020244992243F
:100D0000922449124992240070B50446002500BF80
:100D100094F82400012801D1022070BD012084F83C
:100D2000240000BF2046FFF7F1FB0546002D77D1D8
:100D3000A06A40F20121884340F48070A0623C49DF
:100D40002068884208D13B48006800F4702008B948
:100D5000012002E0002000E0012078B1A06A20F428
:100D60008010A0622068406800F4806000B3A06A30
:100D700020F4005040F48050A06219E0A06A40F4D2
:100D80008010A0622B49091F2068884203D028499F
:100D90002068884204D12748006800F4806000E0A1
:100DA000002028B1A06A20F4005040F48050A062D6
:100DB000A06A00F4805020B1E06A20F00600E062F2
:100DC00001E00020E06200BF002084F8240000BFA2
:100DD000C01E216808602068806800F46020B0F5BB
:100DE000602F16D112492068884208D11148006846
:100DF00000F4702008B9012002E0002000E001208A
:100E000038B12068806840F4A000216888600CE058
:100E100006E02068806840F480102168886004E063
:100E200000BF002084F8240000BF284675E70000BA
:100E3000002801400424014070B50446002594F8C0
:100E40002100022803D00420A0630125C1E020680E
:100E5000006820F00E00216808602068006820F01B
:100E60000100216808605C492068884252D95A49CB
:100E700078392068884201D1012047E05649643919
:100E80002068884201D1102040E053495039206841
:100E9000884201D1801539E04F493C3920688842A9
:100EA00001D1801432E04C4928392068884202D1AF
:100EB0004FF480302AE0484914392068884202D132
:100EC0004FF4801022E044492068884201D1400458
:100ED0001CE042492068884201D1012016E03F49C8
:100EE00014312068884201D110200FE03B4928319D
:100EF0002068884201D1801508E038493C312068DB
:100F0000884201D1801401E04FF480303349091F39
:100F1000086051E0304978392068884201D10120C9
:100F200047E02D4964392068884201D1102040E013
:100F3000294950392068884201D1801539E0264975
:100F40003C392068884201D1801432E02249283996
:100F50002068884202D14FF480302AE01E491439BB
:100F60002068884202D14FF4801022E01A4920689C
:100F7000884201D140041CE018492068884201D110
:100F8000012016E0154914312068884201D1102053
:100F90000FE0124928312068884201D1801508E00D
:100FA0000E493C312068884201D1801401E04FF4A1
:100FB0008030094980394860012084F8210000BF51
:100FC000002084F8200000BF606B10B12046616BE8
:100FD0008847284670BD0000800002400804024097
:100FE0002DE9F847024600239C467BE14FF00108BB
:100FF00008FA03F4D1F8008008EA0400A0427DD189
:10100000DFF8F4A2D1F80480A8EB0A09D0453AD061
:1010100014DCB8F1030F50D009DCB8F1000F31D067
:10102000B8F1010F1CD0B8F1020F49D120E0B8F19E
:10103000110F18D0B8F1120F42D11EE0B9F5881F78
:1010400025D006DCB9F5803F20D0B9F5801F37D117
:101050001AE0B9F5001F18D0B9F5041F30D117E018
:10106000D1F80CC02DE0D1F80C8008F1040C28E078
:10107000D1F80C8008F1080C23E0D1F80C8008F1BD
:101080000C0C1EE000BF00BF00BF00BF00BF00BFD0
:10109000D1F80880B8F1000F02D14FF0040C0BE03A
:1010A000D1F80880B8F1010F03D14FF0080C14619A
:1010B00002E04FF0080C546103E04FF0000C00E038
:1010C00000BF00BFFF2801D8904601E002F10408EC
:1010D0004646FF2802D84FEA830803E0A3F1080838
:1010E0004FEA88084746D6F800804FF00F0909FA02
:1010F00007F928EA09080CFA07F900E07AE048EA5B
:101100000908C6F80080D1F8048008F08058B8F1CA
:10111000805F6FD100BFDFF8E481D8F8188048F015
:101120000108DFF8D891C9F81880C846D8F81880A7
:1011300008F00108CDF8008000BF00BF4FEAB938C1
:101140004FEA930958F829504FEA83784FEA187903
:101150004FF00F0808FA09F825EA0805DFF8A08122
:10116000424502D14FF0000824E0DFF89881424563
:1011700002D14FF001081DE0DFF88C81424502D119
:101180004FF0020816E0DFF88481424502D14FF0AB
:1011900003080FE0DFF87881424502D14FF00408E0
:1011A00008E0DFF87081424502D14FF0050801E008
:1011B0004FF006084FEA83794FEA197908FA09F8DF
:1011C00048EA0505DFF850814FEA930948F82950AD
:1011D000D1F8048008F48038B8F5803F0BD1DFF8EF
:1011E0003C81D8F8008048EA0008DFF83091C9F85F
:1011F00000800AE075E0DFF82481D8F8008028EA52
:101200000008DFF81891C9F80080D1F8048008F4CC
:101210000038B8F5003F0ED1DFF8008108F104086E
:10122000D8F8008048EA0008DFF8F09009F10409D6
:10123000C9F800800DE0DFF8E48008F10408D8F870
:10124000008028EA0008DFF8D49009F10409C9F801
:101250000080D1F8048008F48018B8F5801F0ED102
:10126000DFF8B88008F10808D8F8008048EA0008DC
:10127000DFF8A89009F10809C9F800800DE0DFF84F
:101280009C8008F10808D8F8008028EA0008DFF8F8
:101290008C9009F10809C9F80080D1F8048008F49D
:1012A0000018B8F5001F0ED1DFF8708008F10C08A7
:1012B000D8F8008048EA0008DFF8609009F10C09CE
:1012C000C9F800800DE0DFF8548008F10C08D8F868
:1012D000008028EA0008DFF8449009F10C09C9F8F9
:1012E00000805B1CD1F8008028FA03F8B8F1000FE9
:1012F0007FF47CAEBDE8F8870000111000100240BA
:1013000000080140000C01400010014000140140A1
:1013100000180140001C0140080001400004014089
:1013200010B5C26821EA020302EA010443EA044359
:10133000036110BD0AB1016101E00B040361704754
:101340000148006870470000100000200348006852
:1013500003490978084401490860704710000020DB
:101360001800002010B50848006840F01000064939
:101370000860052000F080F80F2000F007F800F06A
:101380002BF8002010BD00000020024070B504467C
:101390000E4800784FF47A71B1FBF0F00C490968FF
:1013A000B1FBF0F5284600F04CFF08B1012070BDFC
:1013B000102C07D200222146501E00F01EF80548CE
:1013C000046001E00120F2E70020F0E718000020AF
:1013D0000000002014000020704701460846002845
:1013E00009DB00F01F0301229A4043099B0003F12F
:1013F000E023C3F8002100BF70472DE9F05F80466D
:101400000D461646002701F0D3FA074639462A460C
:10141000334601F00700C0F1070ABAF1040F02D900
:101420004FF0040A01E0C0F1070AD14600F1040AB6
:10143000BAF1070F02D24FF0000A01E0A0F1030A4F
:10144000D4464FF0010A0AFA09FAAAF1010A0AEA97
:10145000020A0AFA0CFA4FF0010B0BFA0CFBABF183
:10146000010B0BEA030B4AEA0B042146404601F04C
:10147000A7FABDE8F09F000000BF00F00702064B8E
:1014800019684FF6FF031940044B0B4343EA02214E
:10149000014B196000BF70470CED00E00000FA0539
:1014A0002DE9F04385B0064642A30FCB01AC0FC433
:1014B00044A0006800904FF0000800250027002499
:1014C000A146042E36D004DC012E3BD0022E6BD177
:1014D0005FE0082E32D0102E66D13B484468006889
:1014E00000F0807000B301A8C4F38341475C04F4AA
:1014F000803070B134484068C0F340401DF800802F
:1015000004F4803040B13148B0FBF8F000FB07F53F
:1015100002E02F4807FB00F52B48406800F48000EC
:10152000B0F5800F01D1A94603E068000321B0FBAC
:10153000F1F93AE000F0D2F9814636E000F0CEF958
:10154000814632E02048046A04F44070B0F5807FA0
:1015500005D104F0020010B14FF4004918E004F482
:101560004070B0F5007F07D11748406A00F00200D4
:1015700010B149F640490BE004F44070B0F5407FEB
:1015800006D11148006800F4003008B14FF2244938
:101590000BE000F093F90C494968C1F38131491C13
:1015A0004900B0FBF1F900E000BF00BF484605B0BC
:1015B000BDE8F08302030405060708090A0B0C0DB9
:1015C0000E0F1010010200000010024000127A00FD
:1015D00000093D00F8B5044600260025207800F0FB
:1015E000010000286BD000274348C06900F08050FC
:1015F00070B900BF4048C06940F080503E49C861A2
:101600000846C06900F08050009000BF00BF01276D
:101610003A48006800F48070B0B93848006840F477
:10162000807036490860FFF78BFE064606E0FFF73C
:1016300087FE801B642801D90320F8BD2F4800686D
:1016400000F480700028F2D02B48006A00F4407546
:101650002DB3A08800F44070A84220D02648006A2C
:1016600020F44075012026490860002008602248C7
:10167000056205F0010090B1FFF762FE064608E042
:10168000FFF75EFE801B41F28831884201D90320BA
:10169000D3E71948006A00F002000028F0D016488D
:1016A000006A20F440706168084313490862012F02
:1016B00004D10846C06920F08050C86100BF20787E
:1016C00000F00200022807D10B48406820F4404097
:1016D000A168084308494860207800F010001028ED
:1016E00007D10548406820F4800061690843024939
:1016F00048600020A1E70000001002400070004098
:101700004004424270B504460D460CB9012070BD3C
:101710005A48006800F00700A8420ED257480068F7
:1017200020F007002843554908600846006800F08B
:101730000700A84201D00120E9E7207800F002006C
:1017400002281DD1207800F00400042805D14C485F
:10175000406840F4E0604A494860207800F00800A2
:10176000082805D14648406840F460504449486024
:101770004348406820F0F000A168084340494860B1
:10178000207800F0010078B36068012806D13C4859
:10179000006800F4003090B90120B8E760680228C2
:1017A00006D13748006800F0007040B90120AEE76C
:1017B0003348006800F0020008B90120A7E730486C
:1017C000406820F00300616808432D494860FFF736
:1017D000B7FD064609E0FFF7B3FD801B41F28831F3
:1017E000884202D9032092E707E02548406800F0CC
:1017F0000C006168B0EB810FEDD12048006800F06B
:101800000700A8420ED91D48006820F007002843B1
:101810001A4908600846006800F00700A84201D095
:10182000012074E7207800F00400042807D1144850
:10183000406820F4E060E16808431149486020787E
:1018400000F00800082808D10D48406820F46050D6
:10185000216940EAC1000A49486000F03FF80849A0
:101860004968C1F30311074A515CC8400649086042
:1018700006480068FFF78AFD002048E70020024084
:1018800000100240408400080000002014000020E6
:1018900001480068704700000000002000B5FFF715
:1018A000F7FF04494968C1F30221034A515CC8406B
:1018B00000BD0000001002405084000800B5FFF792
:1018C000E7FF04494968C1F3C221034A515CC8409B
:1018D00000BD00000010024050840008F0B585B043
:1018E0000FF26C0C9CE8E01001A8A0E8E0101CA529
:1018F0002D68009500210022002300240020194DAE
:10190000696801F00C05F5B1042D02D0082D19D13C
:1019100001E0154819E001ADC1F38346AC5D01F467
:10192000803555B10F4D6D68C5F340451DF8052054
:101930000D4D6543B5FBF2F302E00C4D04FB05F3DE
:10194000184602E000BF084800BF00BF05B0F0BD68
:1019500002030405060708090A0B0C0D0E0F1010F0
:10196000010200000010024000127A0000093D0050
:10197000F8B504460CB90120F8BD207800F001004C
:10198000002878D0F848406800F00C0004280CD0FB
:10199000F548406800F00C00082811D1F248406872
:1019A00000F48030B0F5803F0AD1EF48006800F4C1
:1019B000003000285FD0606800285CD10120DBE7A0
:1019C00000BF6068B0F5803F06D1E748006840F48A
:1019D0008030E549086028E0606858B9E24800684E
:1019E00020F48030E04908600846006820F4802038
:1019F00008601AE06068B0F5A02F0BD1DA480068E3
:101A000040F48020D84908600846006840F48030DF
:101A100008600AE0D448006820F48030D2490860A9
:101A20000846006820F48020086000BF606888B124
:101A3000FFF786FC054606E0FFF782FC401B6428A2
:101A400001D9032098E7C848006800F40030002856
:101A5000F2D010E0FFF774FC054606E0FFF770FCDB
:101A6000401B642801D9032086E7BF48006800F4C2
:101A700000300028F2D1207800F00200022857D16F
:101A8000B948406800F00C0050B1B748406800F019
:101A90000C00082818D1B448406800F4803098B988
:101AA000B148006800F0020020B12069012801D08F
:101AB000012061E7AC48006820F0F800616940EA65
:101AC000C100A949086033E02069E8B10120A749B5
:101AD0000860FFF735FC054606E0FFF731FC401BC8
:101AE000022801D9032047E79F48006800F0020060
:101AF0000028F2D09C48006820F0F800616940EAB4
:101B0000C1009949086013E0002098490860FFF778
:101B100017FC054606E0FFF713FC401B022801D91D
:101B2000032029E79048006800F002000028F2D165
:101B3000207800F0080008282DD1A069B8B1012054
:101B40008B490860FFF7FCFB054606E0FFF7F8FB52
:101B5000401B022801D903200EE78348406A00F0A9
:101B600002000028F2D0012000F052FD13E0002016
:101B70007F490860FFF7E4FB054606E0FFF7E0FB5E
:101B8000401B022801D90320F6E67748406A00F09E
:101B900002000028F2D1207800F00400042873D15C
:101BA00000277148C06900F0805070B900BF6E48CE
:101BB000C06940F080506C49C8610846C06900F0B7
:101BC0008050009000BF00BF01276A48006800F401
:101BD0008070B0B96748006840F48070654908605B
:101BE000FFF7AEFB054606E0FFF7AAFB401B6428A3
:101BF00001D90320C0E65F48006800F48070002827
:101C0000F2D000BFE068012806D15748006A40F0D2
:101C100001005549086227E0E06858B95248006A57
:101C200020F00100504908620846006A20F00400D4
:101C3000086219E0E06805280BD14B48006A40F0C3
:101C40000400494908620846006A40F00100086241
:101C50000AE04548006A20F001004349086208464E
:101C6000006A20F00400086200BFE068A0B1FFF73E
:101C700067FB054609E0FFF763FB401B41F2883133
:101C8000884202D9032077E622E03748006A00F054
:101C900002000028EFD012E0FFF752FB054608E0F3
:101CA000FFF74EFB401B41F28831884201D90320E7
:101CB00062E62D48006A00F002000028F0D1012FF2
:101CC00005D12948C06920F080502749C86100BF6C
:101CD000E069C8B32448406800F00C00082860D0D0
:101CE000E069022848D1002020490866FFF728FB58
:101CF000054606E0FFF724FB401B022801D903201C
:101D00003AE61948006800F000700028F2D1206A15
:101D1000B0F5803F07D11448406820F40030A16836
:101D2000084311494860D4E9080108430E4949684D
:101D300021F4741108430C49486001200B490866DE
:101D4000FFF7FEFA054607E03DE0FFF7F9FA401B12
:101D5000022801D903200FE60348006800F0007054
:101D60000028F2D02FE000000010024000004242A4
:101D70008004424200700040002014490866FFF7CA
:101D8000DFFA054606E0FFF7DBFA401B022801D91F
:101D90000320F1E50E48006800F000700028F2D141
:101DA00011E0E069012800D1E6E50948466806F43B
:101DB0008031206A814204D106F47011606A814248
:101DC00001D00120D8E50020D6E500000000424205
:101DD0000010024010B504460CB9012010BD606A25
:101DE00038B96068B0F5827F00D105E00021E1617B
:101DF00002E0002121616161A06AB0F5005F00D1BD
:101E000000BF94F8510028B9002084F85000204603
:101E100000F04AF8022084F851002068006820F0A1
:101E2000400021680860A08800F48270218901F4D4
:101E300004410843A18901F400610843217C01F0B9
:101E400002010843217D01F001010843218B01F4C7
:101E500000710843217F01F0380108432021095D0A
:101E600001F080010843218D01F4005108432168ED
:101E700008600421A06901EA104021684860A06A56
:101E8000B0F5005F03D1A08D80B2216808612068A1
:101E9000C06920F400602168C861002060650120ED
:101EA00084F85100002099E710B586B00446264911
:101EB0002068884245D100BF00BF2448806940F0B7
:101EC0000400224988610846806900F004000190FE
:101ED00000BF00BF00BF00BF00BF0846806940F0E0
:101EE000040088610846806900F00400019000BF8A
:101EF00000BF00BF00BF00BF0846806940F004007B
:101F000088610846806900F00400019000BF00BFAE
:101F100000BF2020029002200390012004900320A3
:101F2000059002A90A48FFF75BF84020029002A939
:101F30000748FFF755F88020029002A90448FFF7F0
:101F40004FF806B010BD0000003001400010024004
:101F5000000801402DE9FF5F0446884691461D4672
:101F60000E9E012002900020019000BF94F85000C6
:101F7000012803D1022004B0BDE8F09F012084F8BD
:101F8000500000BFFFF7DCF9074694F851B06068D5
:101F90000390AA46BBF1010F0BD00398B0F5827FE6
:101FA00004D1A06810B9BBF1040F02D00220019047
:101FB0003DE1B8F1000F03D0B9F1000F00D015B921
:101FC0000120019033E194F85100042802D005204B
:101FD00084F8510000206065C4F83890E587A58733
:101FE000C4F83080E586A58620646064A06AB0F5F8
:101FF000005F0DD100BF2068006820F40050216808
:1020000008602068006840F400502168086000BF44
:102010002068006800F04000402805D02068006873
:1020200040F0400021680860E068B0F5006F56D1CC
:10203000606810B1BAF1010F09D1206B00882168E6
:10204000C860206B801C2063E08E401EE0863FE06D
:102050002068806800F0020002281CD1E08ED0B118
:102060000298012817D1206B00882168C860206B76
:10207000801C2063E08E401EE08600200290E08EEF
:1020800048B9A06AB0F5005F05D12068006840F447
:102090008050216808602068806800F0010068B105
:1020A000E08F58B12068C068A16B0880A06B801CCD
:1020B000A063E08F401EE08701200290FFF740F907
:1020C000C01BB04204D3701C10B103200190AEE0DD
:1020D000E08E0028BCD1E08F0028B9D156E06068BE
:1020E00010B1BAF1010F09D1206B00782168087393
:1020F000206B401C2063E08E401EE08640E020689C
:10210000806800F0020002281CD1E08ED0B1029855
:10211000012817D1206B007821680873206B401CC0
:102120002063E08E401EE08600200290E08E48B9D9
:10213000A06AB0F5005F05D12068006840F48050C7
:10214000216808602068806800F0010068B1E08FB5
:1021500058B12068C068A16B0870A06B401CA063D8
:10216000E08F401EE08701200290FFF7E9F8C01BD6
:10217000B04201D3701C00B916B90320019056E09B
:10218000E08E0028BBD1E08F0028B8D1A06AB0F55E
:10219000005F10D13346012211462046009700F01F
:1021A00063FA30B1606D40F0020060650320019079
:1021B0003DE02068C06820688068C0F30010E8B186
:1021C000204600F04DFA012814D1606D40F0020065
:1021D000606500BF2068006820F400502168086036
:1021E0002068006840F400502168086000BF0120AA
:1021F000019003E04FF6EF70216888603A4631465F
:10220000204600F019FA20B10120019020206065DD
:102210000DE0A06850B900BF002000902068C068A1
:10222000009020688068009000BF00BF00BF0120C0
:1022300084F8510000BF002084F8500000BF0198CE
:1022400099E670B504462546681EB0F1807F01D33B
:1022500001200FE0681E4FF0E02148610F214FF090
:10226000FF3000F0ADFB00204FF0E0218861072037
:102270000861002070BD70472DE9F04704462068D2
:1022800005682068C668206847694FF00008C146A5
:1022900005F00F08B8F1000F0AD105F0200038B1A1
:1022A00006F0200020B1204600F07AFABDE8F08761
:1022B000B8F1000F71D007F0010018B906F4907062
:1022C00000286AD005F0010030B106F4807018B122
:1022D000E06B40F00100E06305F0040030B107F06E
:1022E000010018B1E06B40F00200E06305F002006D
:1022F00030B107F0010018B1E06B40F00400E0637A
:1023000005F0080048B106F0200010B907F0010000
:1023100018B1E06B40F00800E063E06B68B305F0D3
:10232000200028B106F0200010B1204600F038FA55
:1023300020684069C0F38019E06B00F0080010B914
:10234000B9F1000F22D0204600F00AFA2068406957
:1023500000F04000B0B12068406920F040002168E2
:102360004861606B50B11848616B4863606BFEF761
:1023700063FD10B1606B416B88470CE02046FFF7AE
:102380007AFF08E02046FFF776FF04E02046FFF7DB
:1023900072FF0020E06389E7FFE705F0800030B1BD
:1023A00006F0800018B1204600F0C8FA7EE705F07C
:1023B000400030B106F0400018B1204600F0E0F9CE
:1023C00074E700BF72E700004D27000810B504460F
:1023D0000CB9012010BDA06900B100E000BF94F865
:1023E000390028B9002084F83800204600F028F889
:1023F000242084F839002068C06820F40050216847
:10240000C860204600F01CFA2068006920F4904063
:10241000216808612068406920F02A00216848612D
:102420002068C06840F400502168C8600020E06364
:10243000202084F8390084F83A000020CAE7000020
:1024400010B586B004462849206888424AD100BFAA
:1024500000BF2648806940F004002449886108468E
:10246000806900F00400019000BF00BF00BF00BF02
:1024700000BF0846806940F0040088610846806912
:1024800000F00400019000BF00BF00BF00BF00BF0C
:102490000846806940F4804088610846806900F4FD
:1024A0008040019000BF00BF00BF4815029002208D
:1024B0000390012004900320059002A90C48FEF728
:1024C0008FFD4FF4806002900020039002A908481D
:1024D000FEF786FD2520FEF780FF0322114625200A
:1024E000FEF78BFF06B010BD00380140001002401F
:1024F0000008014010B5034693F83A0020282FD178
:1025000001B10AB9012010BD00BF93F838000128BD
:1025100001D10220F7E7012083F8380000BF99625B
:102520009A85DA850020D863222083F83A0000BF1C
:10253000002083F8380000BF1868C06840F480703D
:102540001C68E0601868406940F001001C68606128
:102550001868C06840F020001C68E0600020D2E7E6
:102560000220D0E710B504462049206888423BD1BC
:102570001F48008800F4004088BB1D48008800F414
:10258000804070B11B4800780A2803D00020184909
:10259000088024E01648008840F400401449088070
:1025A0001DE0144800780D2806D11148008840F439
:1025B00080400F49088012E00E4800780C490988D5
:1025C000C1F30D010C4A505409480088401C0849C9
:1025D000088008460088C72801DD00200880012205
:1025E00004490648FFF786FF10BD0000003801408F
:1025F0000C0000200E00002028000020F000002029
:10260000704700BFFEE700BFFEE77047704700005D
:1026100008B508490968C9084FF47A72B1FBF2F1AC
:102620004143009100BF00BF00994A1E009200295B
:10263000F9D108BD00000020F8B504460D46164645
:102640002B46002280212046009600F00DF828B18C
:10265000606D40F0200060650320F8BD0020FCE7BD
:1026600001460120704700002DE9F84F04460D4651
:1026700090461E46DDF82890FEF762FEA0EB0900AA
:10268000371AFEF75DFE82462C480068C0F3CB3057
:102690007843009045E0701C002842D0FEF750FEC1
:1026A000A0EB0A00B84200D2A7BB2068406820F027
:1026B000E000216848606068B0F5827F0DD1A068B5
:1026C000B0F5004F03D0A068B0F5806F05D1206849
:1026D000006820F0400021680860A06AB0F5005F43
:1026E0000DD100BF2068006820F400502168086008
:1026F0002068006840F400502168086000BF012095
:1027000084F8510000BF002084F8500000BF03206F
:10271000BDE8F88FFFE7009800B900270098401E39
:102720000090206880682840A84201D1012000E084
:1027300000204045AFD10020EAE700000000002063
:10274000704710B5FEF702FE10BD704770B5054624
:102750006C6A0020E085E0842046FFF78CFD70BDA8
:102760000168C96821F490710268D1600168496903
:1027700021F0010102685161202180F83A10704770
:1027800010B504462068C06820F040002168C86089
:10279000202084F839002046FFF732FF002010BDCA
:1027A00070B5044694F83A00222847D1A068B0F5E5
:1027B000805F0CD1206950B90025A66A2068406866
:1027C000C0F308003080A06A801CA06215E0A56AF2
:1027D0000026A068B0F5805F03D0A06828B9206902
:1027E00018B920684068287004E02068406800F04C
:1027F0007F002870A06A401CA062E08D401E80B25D
:10280000E085C8B92068C06820F020002168C86051
:102810002068C06820F480702168C8602068406922
:1028200020F0010021684861202084F83A00204609
:10283000FFF798FE002070BD0020FCE70220FAE7B9
:1028400070B504462168096921F44051E2681143DA
:10285000226811612269A1681143626941EA020597
:102860002168C96841F20C62914329432268D16012
:102870002168496921F44071A269114322685161BC
:102880002D4A2168914202D1FFF718F801E0FFF7C5
:1028900005F800EBC00101EB001162689200B1FB8A
:1028A000F2F100EBC00202EB001263689B00B2FB86
:1028B000F3F26423B2FBF3F202EBC20303EB021266
:1028C000A1EB8201322202EB01116422B1FBF2F191
:1028D00001F0F00100EBC00202EB001263689B0004
:1028E000B2FBF3F26423B2FBF3F201EB021200EB52
:1028F000C00101EB001163689B00B1FBF3F100EB39
:10290000C00303EB00136668B600B3FBF6F364265E
:10291000B3FBF6F303EBC30606EB0313A1EB830152
:10292000322303EB01116423B1FBF3F101F00F013A
:1029300011442268916070BD00380140014691F851
:102940003900212828D18868B0F5805F0BD108694B
:1029500048B90A6A1088C0F308000B685860086A12
:10296000801C086205E00B6A581C086218780B6826
:102970005860C88C401E80B2C88458B90868C068C6
:1029800020F080000B68D8600868C06840F0400004
:102990000B68D860002070470220FCE710B50248A1
:1029A000FFF76AFC10BD0000F000002000BFFEE74A
:1029B00002480068C0F30220704700000CED00E000
:1029C00010B5002804DB0A07130E054A135406E06D
:1029D0000A07140E034A00F00F031B1FD45410BD46
:1029E00000E400E018ED00E000BF7047FEB50746C8
:1029F0000C4615461E4600940195029669463846D7
:102A0000FDF724FFFEBD000010B504460723012298
:102A100021460748FFF7EAFF0548FEF775F90A2146
:102A20000348FEF7B9F80248FDF7C0FF10BD0000EB
:102A3000400100202DE9F04107460C460025002604
:102A400008E03846FFF7E0FF0544052000F02CF8C9
:102A5000701CC6B2A642F4DBB5FBF4F0BDE8F08111
:102A600010B50C480C4908600020486048600021FF
:102A700009488160017301210161002101758161B3
:102A80004FF46021C161FDF795FF0348FDF75CFE3F
:102A900010BD0000002401404001002001490860F1
:102AA000704700000400002010B504464FF47A710E
:102AB00004FB01F000F002F810BD000070B5034601
:102AC00000224FF0E02675690D4E366803FB06F4D0
:102AD0004FF0E026B16910E04FF0E026B06988427F
:102AE0000BD0884202D20E1A324402E02E1A0E4453
:102AF00032440146A24200D300E0EDE700BF70BDC2
:102B00000400002000BF054A126802F04002002ABB
:102B1000F9D0C2B2014B1B1D1A607047003801404A
:102B200078B5044600261B480588408845430021A7
:102B3000084604F0A1FD00BF1648008900904FF040
:102B400080701549086140000861BDF80000134914
:102B500008604FF40000104908618020086180007F
:102B6000086100BF00BF401008614004086100BF59
:102B700008E00A4804604FF400000749086180201B
:102B80000861761CAE42F4D34FF40070024908612C
:102B900078BD000030010020001001400C0C014005
:102BA00010B5044658488471002C58D1F02056497D
:102BB00008804FF4A07048800846808845F2105184
:102BC000884210D14FF430504F4908814FF42850BB
:102BD00048814FF42C5088814FF4F07008804FF4F6
:102BE000487048801AE04848808841F6631188425E
:102BF0000DD12C20444908812B2048812A2088812E
:102C00004FF4F07008804FF44870488006E02C20A4
:102C10003D4908812A2048812B2088813A488088B4
:102C200045F21031884205D03748808847F29671C6
:102C3000884206D14FF4A070334908804FF4F070F9
:102C400048803148808849F60601884258D14FF4BF
:102C5000F0702D4908804FF44870488050E04FF4E0
:102C6000A07029490880F02048800846808845F2F5
:102C70001051884210D14FF43050234908814FF44D
:102C8000285048814FF42C5088814FF448700880B8
:102C90004FF4F070488020E01B48808841F66311B3
:102CA000884205D01848808849F6060188420DD12F
:102CB0002C20154908812A2048812B2088814FF437
:102CC000487008804FF4F070488006E02C200E49D0
:102CD00008812A2048812B2088810B48808845F272
:102CE0001031884205D00848808847F296718842A2
:102CF00006D14FF4F070044908804FF4A07048806A
:102D0000002004F025FA10BD3001002078B50546FA
:102D10000E4614463146284604F0AEFC00BF124869
:102D2000008900904FF080701049086140000861F0
:102D3000BDF800000E4908604FF400000B4908611F
:102D4000802008618000086100BF00BF401008615A
:102D500040040861064804604FF4000008618020C8
:102D600008618000086178BD30010020001001403A
:102D70000C0C014008B5CF2000904FF08070FE4948
:102D8000086140000861BDF80000FC4908604FF48C
:102D90000000F9490861802008618000086100BFD7
:102DA000002005F04DF8C12005F04AF8302005F06C
:102DB00047F8ED2000904FF08070EF490861400027
:102DC0000861BDF80000ED4908604FF40000EA49D1
:102DD0000861802008618000086100BF642005F060
:102DE0002FF8032005F02CF8122005F029F8812097
:102DF00005F026F8E82000904FF08070DE49086169
:102E000040000861BDF80000DC4908604FF4000094
:102E1000D9490861802008618000086100BF8520D1
:102E200005F00EF8102005F00BF87A2005F008F8F0
:102E3000CB2000904FF08070CF49086140000861BE
:102E4000BDF80000CD4908604FF40000CA49086190
:102E5000802008618000086100BF392004F0F0FF85
:102E60002C2004F0EDFF002004F0EAFF342004F0F1
:102E7000E7FF022004F0E4FFF72000904FF080709D
:102E8000BD49086140000861BDF80000BB49086009
:102E90004FF40000B8490861802008618000086193
:102EA00000BF202004F0CCFFEA2000904FF080709B
:102EB000B149086140000861BDF80000AF490860F1
:102EC0004FF40000AC49086180200861800008616F
:102ED00000BF002004F0B4FF002004F0B1FFC020C8
:102EE00000904FF08070A449086140000861BDF86F
:102EF0000000A24908604FF400009F49086180204B
:102F000008618000086100BF1B2004F099FFC12008
:102F100000904FF080709849086140000861BDF84A
:102F20000000964908604FF4000093490861802032
:102F300008618000086100BF012004F081FFC52006
:102F400000904FF080708C49086140000861BDF826
:102F500000008A4908604FF400008749086180201A
:102F600008618000086100BF302004F069FF302054
:102F700004F066FFC72000904FF080707E49086122
:102F800040000861BDF800007C4908604FF4000073
:102F900079490861802008618000086100BFB7207E
:102FA00004F04EFF362000904FF0807072490861A7
:102FB00040000861BDF80000704908604FF400004F
:102FC0006D490861802008618000086100BF4820C9
:102FD00004F036FF3A2000904FF080706649086197
:102FE00040000861BDF80000644908604FF400002B
:102FF00061490861802008618000086100BF552098
:1030000004F01EFFB12000904FF080705A49086113
:1030100040000861BDF80000584908604FF4000006
:1030200055490861802008618000086100BF0020C8
:1030300004F006FF1A2004F003FFB62000904FF0C2
:1030400080704D49086140000861BDF800004B499F
:1030500008604FF400004849086180200861800042
:10306000086100BF0A2004F0EBFEA22004F0E8FE95
:10307000F22000904FF080703F49086140000861E5
:10308000BDF800003D4908604FF400003A4908616E
:10309000802008618000086100BF002004F0D0FE9D
:1030A000262000904FF0807033490861400008618D
:1030B000BDF80000314908604FF400002E49086156
:1030C000802008618000086100BF012004F0B8FE84
:1030D000E02000904FF080702749086140000861AF
:1030E000BDF80000254908604FF40000224908613E
:1030F000802008618000086100BF0F2004F0A0FE5E
:103100002A2004F09DFE282004F09AFE082004F0F6
:1031100097FE0E2004F094FE082004F091FE542047
:1031200004F08EFEA92004F08BFE432004F088FEFC
:103130000A2004F085FE0F2004F082FE002004F037
:103140007FFE002004F07CFE002004F079FE0020C9
:1031500004F076FEE12000904FF08070064908618F
:1031600040000861BDF80000044908604FF4000009
:1031700001490861802003E0001001400C0C01406F
:1031800008618000086100BF002004F059FE15208E
:1031900004F056FE172004F053FE072004F050FE02
:1031A000112004F04DFE062004F04AFE2B2004F00E
:1031B00047FE562004F044FE3C2004F041FE05206A
:1031C00004F03EFE102004F03BFE0F2004F038FE19
:1031D0003F2004F035FE3F2004F032FE0F2004F0C3
:1031E0002FFE2B2000904FF0807036490861400080
:1031F0000861BDF80000344908604FF4000031490F
:103200000861802008618000086100BF002004F090
:1032100017FE002004F014FE012004F011FE3F20F0
:1032200004F00EFE2A2000904FF0807025490861BE
:1032300040000861BDF80000234908604FF4000019
:1032400020490861802008618000086100BF0020DB
:1032500004F0F6FD002004F0F3FD002004F0F0FD82
:10326000EF2004F0EDFD112000904FF08070154923
:10327000086140000861BDF80000134908604FF480
:10328000000010490861802008618000086100BFCB
:103290007820FFF709FC292000904FF08070094941
:1032A000086140000861BDF80000074908604FF45C
:1032B000000004490861802008618000086100BFA7
:1032C00008BD0000001001400C0C014008B5FF20B3
:1032D00000904FF08070FE49086140000861BDF821
:1032E0000000FC4908604FF40000F94908618020A3
:1032F00008618000086100BFFF2004F0A1FD982054
:1033000004F09EFD062004F09BFDBC2000904FF0D1
:103310008070EF49086140000861BDF80000ED4988
:1033200008604FF40000EA490861802008618000CD
:10333000086100BF012004F083FD0F2004F080FD30
:10334000612004F07DFDFF2004F07AFD012004F0EF
:1033500077FD012004F074FD0B2004F071FD1020B6
:1033600004F06EFD372004F06BFD632004F068FD6F
:10337000FF2004F065FDFF2004F062FD012004F051
:103380005FFD012004F05CFD002004F059FD0020E9
:1033900004F056FDFF2004F053FD522004F050FDD0
:1033A000012004F04DFD002004F04AFD402004F00F
:1033B00047FDBD2000904FF08070C5490861400076
:1033C0000861BDF80000C34908604FF40000C0491F
:1033D0000861802008618000086100BF012004F0BE
:1033E0002FFD232004F02CFD452004F029FD67204B
:1033F00004F026FD012004F023FD232004F020FD2D
:10340000452004F01DFD672004F01AFDBE20009049
:103410004FF08070AE49086140000861BDF80000BF
:10342000AC4908604FF40000A94908618020086198
:103430008000086100BF002004F002FD012004F0BC
:10344000FFFCAB2004F0FCFC602004F0F9FC22201F
:1034500004F0F6FC222004F0F3FC222004F0F0FC3F
:10346000222004F0EDFC222004F0EAFCC7200090AA
:103470004FF080709649086140000861BDF8000077
:10348000944908604FF40000914908618020086168
:103490008000086100BF362004F0D2FCED200090CF
:1034A0004FF080708A49086140000861BDF8000053
:1034B000884908604FF40000854908618020086150
:1034C0008000086100BF7F2004F0BAFC0F2004F0E8
:1034D000B7FCC02000904FF080707D49086140002B
:1034E0000861BDF800007B4908604FF4000078498E
:1034F0000861802008618000086100BF0F2004F08F
:103500009FFC0B2004F09CFC0A2004F099FCFC209A
:1035100000904FF080706E49086140000861BDF86E
:1035200000006C4908604FF4000069490861802080
:1035300008618000086100BF082004F081FCDF20E2
:1035400000904FF080706249086140000861BDF84A
:103550000000604908604FF400005D490861802068
:1035600008618000086100BF002004F069FC0020B1
:1035700004F066FC002004F063FC002004F060FC12
:10358000002004F05DFC202004F05AFCF3200090A1
:103590004FF080704E49086140000861BDF800009E
:1035A0004C4908604FF400004949086180200861D7
:1035B0008000086100BF742004F042FCB420009039
:1035C0004FF080704249086140000861BDF800007A
:1035D000404908604FF400003D49086180200861BF
:1035E0008000086100BF002004F02AFC002004F0E5
:1035F00027FC002004F024FCF72000904FF080709E
:103600003349086140000861BDF800003149086095
:103610004FF400002E490861802008618000086195
:1036200000BF822004F00CFCB12000904FF08070AD
:103630002749086140000861BDF80000254908607D
:103640004FF4000022490861802008618000086171
:1036500000BF002004F0F4FB132004F0F1FB132062
:1036600004F0EEFBF22000904FF0807018490861E2
:1036700040000861BDF80000164908604FF40000E2
:1036800013490861802008618000086100BF802024
:1036900004F0D6FB042004F0D3FB402004F0D0FB60
:1036A000282004F0CDFBC12000904FF08070084925
:1036B000086140000861BDF80000064908604FF449
:1036C000000003490861802008618000086103E070
:1036D000001001400C0C014000BF172004F0B0FBAB
:1036E000882004F0ADFB882004F0AAFB202004F021
:1036F000A7FBE02000904FF080709F4908614000D8
:103700000861BDF800009D4908604FF400009A4927
:103710000861802008618000086100BF002004F07B
:103720008FFB0A2004F08CFB122004F089FB102090
:1037300004F086FB0E2004F083FB202004F080FBC5
:10374000CC2004F07DFB072004F07AFB062004F077
:1037500077FB0B2004F074FB0E2004F071FB0F20AC
:1037600004F06EFB0D2004F06BFB152004F068FBE9
:10377000102004F065FB002004F062FBE1200090C3
:103780004FF080707C49086140000861BDF800007E
:103790007A4908604FF40000774908618020086189
:1037A0008000086100BF002004F04AFB0B2004F0F9
:1037B00047FB132004F044FB0D2004F041FB0E20D6
:1037C00004F03EFB1B2004F03BFB712004F038FBAF
:1037D000062004F035FB062004F032FB0A2004F03A
:1037E0002FFB0F2004F02CFB0E2004F029FB0F20F0
:1037F00004F026FB152004F023FB0C2004F020FB32
:10380000002004F01DFB2A2000904FF080705A49E0
:10381000086140000861BDF80000584908604FF495
:10382000000055490861802008618000086100BFE0
:10383000002004F005FB002004F002FB012004F04E
:10384000FFFADF2004F0FCFA2B2000904FF080708C
:103850004949086140000861BDF800004749086017
:103860004FF400004449086180200861800008612D
:1038700000BF002004F0E4FA002004F0E1FA032085
:1038800004F0DEFA1F2004F0DBFA3A2000904FF03B
:1038900080703949086140000861BDF8000037496F
:1038A00008604FF4000034490861802008618000FE
:1038B000086100BF552004F0C3FA362000904FF095
:1038C00080702D49086140000861BDF800002B4957
:1038D00008604FF4000028490861802008618000DA
:1038E000086100BF002004F0ABFA112000904FF0F7
:1038F00080702149086140000861BDF800001F493F
:1039000008604FF400001C490861802008618000B5
:10391000086100BF7820FFF7C7F8292000904FF01A
:1039200080701549086140000861BDF80000134926
:1039300008604FF400001049086180200861800091
:10394000086100BF1420FFF7AFF82C2000904FF063
:1039500080700949086140000861BDF8000007490E
:1039600008604FF40000044908618020086180006D
:10397000086100BF08BD0000001001400C0C0140B0
:1039800008B5ED2000904FF08070FE4908614000BE
:103990000861BDF80000FC4908604FF40000F949D7
:1039A0000861802008618000086100BF012004F0E8
:1039B00047FAFE2004F044FAEE2000904FF08070A9
:1039C000F049086140000861BDF80000EE49086058
:1039D0004FF40000EB490861802008618000086115
:1039E00000BFDE2004F02CFA212004F029FAF12097
:1039F00000904FF08070E349086140000861BDF815
:103A00000000E14908604FF40000DE4908618020B1
:103A100008618000086100BF012004F011FADF2076
:103A200000904FF08070D749086140000861BDF8F0
:103A30000000D54908604FF40000D2490861802099
:103A400008618000086100BF102004F0F9F9C4206B
:103A500000904FF08070CB49086140000861BDF8CC
:103A60000000C94908604FF40000C6490861802081
:103A700008618000086100BF8F2004F0E1F9C620D2
:103A800000904FF08070BF49086140000861BDF8A8
:103A90000000BD4908604FF40000BA490861802069
:103AA00008618000086100BF002004F0C9F9E2202D
:103AB00004F0C6F9E22004F0C3F9E22004F0C0F9F2
:103AC000BF2000904FF08070AE490861400008614F
:103AD000BDF80000AC4908604FF40000A949086136
:103AE000802008618000086100BFAA2004F0A8F9C6
:103AF000B02000904FF08070A2490861400008613A
:103B0000BDF80000A04908604FF400009D4908611D
:103B1000802008618000086100BF0D2004F090F94A
:103B2000002004F08DF90D2004F08AF9002004F043
:103B300087F9112004F084F9002004F081F919209C
:103B400004F07EF9002004F07BF9212004F078F9DC
:103B5000002004F075F92D2004F072F9002004F023
:103B60006FF93D2004F06CF9002004F069F95D2044
:103B700004F066F9002004F063F95D2004F060F9B8
:103B8000002004F05DF9B12000904FF080707D4975
:103B9000086140000861BDF800007B4908604FF4EF
:103BA000000078490861802008618000086100BF3A
:103BB000802004F045F9002004F042F98B2004F045
:103BC0003FF9002004F03CF9962004F039F9002078
:103BD00004F036F9B22000904FF080706949086116
:103BE00040000861BDF80000674908604FF400001C
:103BF00064490861802008618000086100BF0020DE
:103C000004F01EF9002004F01BF9022004F018F95A
:103C1000002004F015F9032004F012F9002004F04C
:103C20000FF9B32000904FF08070564908614000B2
:103C30000861BDF80000544908604FF40000514984
:103C40000861802008618000086100BF002004F046
:103C5000F7F8002004F0F4F8002004F0F1F8002058
:103C600004F0EEF8002004F0EBF8002004F0E8F88F
:103C7000002004F0E5F8002004F0E2F8002004F051
:103C8000DFF8002004F0DCF8002004F0D9F8002070
:103C900004F0D6F8002004F0D3F8002004F0D0F8A7
:103CA000002004F0CDF8002004F0CAF8002004F051
:103CB000C7F8002004F0C4F8002004F0C1F8002088
:103CC00004F0BEF8002004F0BBF8002004F0B8F8BF
:103CD000002004F0B5F8002004F0B2F8B420009001
:103CE0004FF080702749086140000861BDF800006E
:103CF000254908604FF400002249086180200861CE
:103D00008000086100BF8B2004F09AF8002004F0C6
:103D100097F8962004F094F8002004F091F8A12080
:103D200004F08EF8002004F08BF8B52000904FF0DE
:103D300080701449086140000861BDF80000124914
:103D400008604FF400000F4908618020086180007E
:103D5000086100BF022004F073F8002004F070F83E
:103D6000032004F06DF8002004F06AF8042004F049
:103D700067F8002004F064F8B62000904FF08070DF
:103D8000004903E0001001400C0C014008614000B4
:103D90000861BDF80000FE4908604FF40000FD49CD
:103DA0000861802008618000086100BF002004F0E5
:103DB00047F8002004F044F8B72000904FF08070DE
:103DC000F449086140000861BDF80000F04908604E
:103DD0004FF40000EF49086180200861800008610D
:103DE00000BF002004F02CF8002004F029F83F2048
:103DF00004F026F8002004F023F85E2004F020F8F8
:103E0000002004F01DF8642004F01AF8002004F0EB
:103E100017F88C2004F014F8002004F011F8AC20FE
:103E200004F00EF8002004F00BF8DC2004F008F891
:103E3000002004F005F8702004F002F8002003F0E0
:103E4000FFFF902003F0FCFF002003F0F9FFEB20C0
:103E500003F0F6FF002003F0F3FFDC2003F0F0FF97
:103E6000002003F0EDFFB82000904FF08070C949AA
:103E7000086140000861BDF80000C54908604FF4C2
:103E80000000C4490861802008618000086100BF0B
:103E9000002003F0D5FF002003F0D2FF002003F044
:103EA000CFFF002003F0CCFF002003F0C9FF00206B
:103EB00003F0C6FF002003F0C3FF002003F0C0FFA3
:103EC000BA2000904FF08070B2490861400008614C
:103ED000BDF80000AE4908604FF40000AD4908612C
:103EE000802008618000086100BF242003F0A8FF43
:103EF000002003F0A5FF002003F0A2FF002003F044
:103F00009FFFC12000904FF08070A24908614000DF
:103F10000861BDF800009E4908604FF400009D490B
:103F20000861802008618000086100BF202003F044
:103F300087FF002003F084FF542003F081FF00205E
:103F400003F07EFFFF2003F07BFF002003F078FFEB
:103F5000C22000904FF080708E49086140000861D7
:103F6000BDF800008A4908604FF4000089490861E3
:103F7000802008618000086100BF0A2003F060FF14
:103F8000002003F05DFF042003F05AFF002003F03F
:103F900057FFC32000904FF080707E4908614000B9
:103FA0000861BDF800007A4908604FF400007949C3
:103FB0000861802008618000086100BF3C2003F098
:103FC0003FFF002003F03CFF3A2003F039FF0020C0
:103FD00003F036FF392003F033FF002003F030FFF9
:103FE000372003F02DFF002003F02AFF3C2003F0D0
:103FF00027FF002003F024FF362003F021FF0020DC
:1040000003F01EFF322003F01BFF002003F018FF17
:104010002F2003F015FF002003F012FF2C2003F0E7
:104020000FFF002003F00CFF292003F009FF002000
:1040300003F006FF262003F003FF002003F000FF3B
:10404000242003F0FDFE002003F0FAFE242003F0FC
:10405000F7FE002003F0F4FE232003F0F1FE002021
:1040600003F0EEFE3C2003F0EBFE002003F0E8FE40
:10407000362003F0E5FE002003F0E2FE322003F0DC
:10408000DFFE002003F0DCFE2F2003F0D9FE00202D
:1040900003F0D6FE2C2003F0D3FE002003F0D0FE68
:1040A000292003F0CDFE002003F0CAFE262003F0F5
:1040B000C7FE002003F0C4FE242003F0C1FE002050
:1040C00003F0BEFE242003F0BBFE002003F0B8FE88
:1040D000232003F0B5FE002003F0B2FEC4200090C0
:1040E0004FF080702B49086140000861BDF8000066
:1040F000274908604FF400002649086180200861C4
:104100008000086100BF622003F09AFE002003F0E7
:1041100097FE052003F094FE002003F091FE84201A
:1041200003F08EFE002003F08BFEF02003F088FEEB
:10413000002003F085FE182003F082FE002003F02B
:104140007FFEA42003F07CFE002003F079FE1820FF
:1041500003F076FE002003F073FE502003F070FEA3
:10416000002003F06DFE0C2003F06AFE002003F037
:1041700067FE172003F064FE002003F061FE952027
:1041800003F05EFE002003F05BFEF32004E000007D
:104190000C0C01400010014003F052FE002003F01F
:1041A0004FFEE62003F04CFE002003F049FEC52040
:1041B00000904FF08070FE49086140000861BDF832
:1041C0000000FC4908604FF40000F94908618020B4
:1041D00008618000086100BF322003F031FE00203A
:1041E00003F02EFE442003F02BFE002003F028FEF7
:1041F000652003F025FE002003F022FE762003F068
:104200001FFE002003F01CFE882003F019FE002092
:1042100003F016FEC62000904FF08070E44908615C
:1042200040000861BDF80000E24908604FF400005A
:10423000DF490861802008618000086100BF2020FC
:1042400003F0FEFD002003F0FBFD172003F0F8FD56
:10425000002003F0F5FD012003F0F2FD002003F043
:10426000EFFDC72000904FF08070D14908614000F9
:104270000861BDF80000CF4908604FF40000CC4948
:104280000861802008618000086100BF002003F001
:10429000D7FD002003F0D4FD002003F0D1FD002065
:1042A00003F0CEFDC82000904FF08070C049086137
:1042B00040000861BDF80000BE4908604FF40000EE
:1042C000BB490861802008618000086100BF0020B0
:1042D00003F0B6FD002003F0B3FD002003F0B0FDB5
:1042E000002003F0ADFDC92000904FF08070B04970
:1042F000086140000861BDF80000AE4908604FF455
:104300000000AB490861802008618000086100BF9F
:10431000002003F095FD002003F092FD002003F043
:104320008FFD002003F08CFD002003F089FD0020AC
:1043300003F086FD002003F083FD002003F080FDE4
:10434000002003F07DFD002003F07AFD002003F043
:1043500077FD002003F074FD002003F071FD0020C4
:1043600003F06EFD002003F06BFD002003F068FDFC
:10437000E02000904FF080708D4908614000086196
:10438000BDF800008B4908604FF4000088490861BF
:10439000802008618000086100BF162003F050FDF6
:1043A000002003F04DFD1C2003F04AFD002003F027
:1043B00047FD212003F044FD002003F041FD36209D
:1043C00003F03EFD002003F03BFD462003F038FDE6
:1043D000002003F035FD522003F032FD002003F0F1
:1043E0002FFD642003F02CFD002003F029FD7A202E
:1043F00003F026FD002003F023FD8B2003F020FDB9
:10440000002003F01DFD992003F01AFD002003F0A9
:1044100017FDA82003F014FD002003F011FDB920C2
:1044200003F00EFD002003F00BFDC42003F008FD97
:10443000002003F005FDCA2003F002FD002003F078
:10444000FFFCD22003F0FCFC002003F0F9FCD92093
:1044500003F0F6FC002003F0F3FCE02003F0F0FC96
:10446000002003F0EDFCF32003F0EAFC002003F051
:10447000E7FCE12000904FF080704D49086140005A
:104480000861BDF800004B4908604FF4000048493E
:104490000861802008618000086100BF162003F0D9
:1044A000CFFC002003F0CCFC1C2003F0C9FC002052
:1044B00003F0C6FC222003F0C3FC002003F0C0FC84
:1044C000362003F0BDFC002003F0BAFC452003F0C9
:1044D000B7FC002003F0B4FC522003F0B1FC002034
:1044E00003F0AEFC642003F0ABFC002003F0A8FC5A
:1044F0007A2003F0A5FC002003F0A2FC8B2003F03F
:104500009FFC002003F09CFC992003F099FC002004
:1045100003F096FCA82003F093FC002003F090FC2D
:10452000B92003F08DFC002003F08AFCC42003F0C6
:1045300087FC002003F084FCCA2003F081FC0020EB
:1045400003F07EFCD22003F07BFC002003F078FC1B
:10455000D82003F075FC002003F072FCE02003F08B
:104560006FFC002003F06CFCF32003F069FC0020DA
:1045700003F066FCE22000904FF080700C49086167
:1045800040000861BDF800000A4908604FF40000CF
:1045900007490861802008618000086100BF05208C
:1045A00003F04EFC002003F04BFC0B2004E0000065
:1045B000001001400C0C014003F042FC002003F00D
:1045C0003FFC1B2003F03CFC002003F039FC3420AE
:1045D00003F036FC002003F033FC442003F030FCF1
:1045E000002003F02DFC4F2003F02AFC002003F0F4
:1045F00027FC612003F024FC002003F021FC79203B
:1046000003F01EFC002003F01BFC882003F018FCC4
:10461000002003F015FC972003F012FC002003F0AB
:104620000FFCA62003F00CFC002003F009FCB720CF
:1046300003F006FC002003F003FCC22003F000FCA2
:10464000002003F0FDFBC72003F0FAFB002003F07D
:10465000F7FBD12003F0F4FB002003F0F1FBD620A0
:1046600003F0EEFB002003F0EBFBDD2003F0E8FBA2
:10467000002003F0E5FBF32003F0E2FB002003F051
:10468000DFFBE32000904FF08070FE49086140009E
:104690000861BDF80000FC4908604FF40000F949CA
:1046A0000861802008618000086100BF052003F0D8
:1046B000C7FB002003F0C4FB0A2003F0C1FB00206D
:1046C00003F0BEFB1C2003F0BBFB002003F0B8FB93
:1046D000332003F0B5FB002003F0B2FB442003F0CD
:1046E000AFFB002003F0ACFB502003F0A9FB00203F
:1046F00003F0A6FB622003F0A3FB002003F0A0FB65
:10470000782003F09DFB002003F09AFB882003F043
:1047100097FB002003F094FB972003F091FB00200F
:1047200003F08EFBA62003F08BFB002003F088FB38
:10473000B72003F085FB002003F082FBC22003F0CA
:104740007FFB002003F07CFBC72003F079FB0020F7
:1047500003F076FBD12003F073FB002003F070FB25
:10476000D52003F06DFB002003F06AFBDD2003F091
:1047700067FB002003F064FBF32003F061FB0020E3
:1047800003F05EFBE42000904FF08070BD490861AB
:1047900040000861BDF80000BB4908604FF400000C
:1047A000B8490861802008618000086100BF0120CD
:1047B00003F046FB002003F043FB012003F040FB25
:1047C000002003F03DFB022003F03AFB002003F041
:1047D00037FB2A2003F034FB002003F031FB3C20A0
:1047E00003F02EFB002003F02BFB4B2003F028FBF3
:1047F000002003F025FB5D2003F022FB002003F0E6
:104800001FFB742003F01CFB002003F019FB842025
:1048100003F016FB002003F013FB932003F010FBC2
:10482000002003F00DFBA22003F00AFB002003F0A0
:1048300007FBB32003F004FB002003F001FBBE20C4
:1048400003F0FEFA002003F0FBFAC42003F0F8FAAC
:10485000002003F0F5FACD2003F0F2FA002003F077
:10486000EFFAD32003F0ECFA002003F0E9FADD20A0
:1048700003F0E6FA002003F0E3FAF32003F0E0FA95
:10488000002003F0DDFAE52000904FF080707D49B4
:10489000086140000861BDF800007B4908604FF4E2
:1048A000000078490861802008618000086100BF2D
:1048B000002003F0C5FA002003F0C2FA002003F044
:1048C000BFFA002003F0BCFA022003F0B9FA00207E
:1048D00003F0B6FA292003F0B3FA002003F0B0FA8F
:1048E0003C2003F0ADFA002003F0AAFA4B2003F0BD
:1048F000A7FA002003F0A4FA5D2003F0A1FA00203B
:1049000003F09EFA742003F09BFA002003F098FA5B
:10491000842003F095FA002003F092FA932003F02C
:104920008FFA002003F08CFAA22003F089FA00200D
:1049300003F086FAB32003F083FA002003F080FA34
:10494000BE2003F07DFA002003F07AFAC42003F0C1
:1049500077FA002003F074FACD2003F071FA0020FA
:1049600003F06EFAD32003F06BFA002003F068FA2C
:10497000DC2003F065FA002003F062FAF32003F074
:104980005FFA002003F05CFAE62000904FF08070A0
:104990003C49086140000861BDF800003A490860E0
:1049A0004FF40000374908618020086180000861E9
:1049B00000BF112003F044FA002003F041FA342034
:1049C00003F03EFA002003F03BFA562003F038FAD9
:1049D000002003F035FA762003F032FA002003F0CD
:1049E0002FFA772003F02CFA002003F029FA662032
:1049F00003F026FA002003F023FA882003F020FABF
:104A0000002003F01DFA992003F01AFA002003F0A9
:104A100017FABB2003F014FA002003F011FA9920D2
:104A200003F00EFA002003F00BFA662003F008FAF8
:104A3000002003F005FA552003F002FA002003F0ED
:104A4000FFF9552003F0FCF9002003F0F9F94520A7
:104A500003F0F6F9002003F0F3F9432003F0F0F936
:104A6000002003F0EDF9442003F0EAF9002003F000
:104A7000E7F9E72000904FF080700249086140009C
:104A8000086103E0001001400C0C0140BDF800007B
:104A9000FE4908604FF40000FD490861802008616C
:104AA0008000086100BF322003F0CAF9002003F043
:104AB000C7F9552003F0C4F9002003F0C1F97620AE
:104AC00003F0BEF9002003F0BBF9662003F0B8F94B
:104AD000002003F0B5F9672003F0B2F9002003F0DD
:104AE000AFF9672003F0ACF9002003F0A9F98720A3
:104AF00003F0A6F9002003F0A3F9992003F0A0F930
:104B0000002003F09DF9BB2003F09AF9002003F088
:104B100097F9992003F094F9002003F091F9772098
:104B200003F08EF9002003F08BF9442003F088F99C
:104B3000002003F085F9562003F082F9002003F0ED
:104B40007FF9232003F07CF9002003F079F933206A
:104B500003F076F9002003F073F9452003F070F9B3
:104B6000002003F06DF9E82000904FF08070C849F4
:104B7000086140000861BDF80000C44908604FF4B6
:104B80000000C3490861802008618000086100BFFF
:104B9000002003F055F9002003F052F9992003F0AA
:104BA0004FF9002003F04CF9872003F049F9002069
:104BB00003F046F9882003F043F9002003F040F9A0
:104BC000772003F03DF9002003F03AF9662003F066
:104BD00037F9002003F034F9882003F031F9002080
:104BE00003F02EF9AA2003F02BF9002003F028F996
:104BF000BB2003F025F9002003F022F9992003F0EF
:104C00001FF9002003F01CF9662003F019F90020B9
:104C100003F016F9552003F013F9002003F010F902
:104C2000552003F00DF9002003F00AF9442003F0A9
:104C300007F9002003F004F9442003F001F90020F3
:104C400003F0FEF8552003F0FBF8002003F0F8F81D
:104C5000E92000904FF080708D49086140000861A4
:104C6000BDF80000894908604FF4000088490861D8
:104C7000802008618000086100BFAA2003F0E0F8EE
:104C8000002003F0DDF8002003F0DAF8002003F044
:104C9000D7F8002000904FF080707D4908614000F7
:104CA0000861BDF80000794908604FF400007849B8
:104CB0000861802008618000086100BFAA2003F01D
:104CC000BFF8CF2000904FF080707149086140001C
:104CD0000861BDF800006D4908604FF400006C49A0
:104CE0000861802008618000086100BF002003F097
:104CF000A7F8002003F0A4F8002003F0A1F800209A
:104D000003F09EF8002003F09BF8002003F098F8D1
:104D1000002003F095F8002003F092F8002003F043
:104D20008FF8002003F08CF8002003F089F80020B1
:104D300003F086F8002003F083F8002003F080F8E9
:104D4000002003F07DF8002003F07AF8002003F043
:104D500077F8F02000904FF080704D4908614000D6
:104D60000861BDF80000494908604FF40000484957
:104D70000861802008618000086100BF002003F006
:104D80005FF8502003F05CF8002003F059F8002091
:104D900003F056F8002003F053F8F32000904FF092
:104DA00080703B49086140000861BDF80000374948
:104DB00008604FF4000036490861802008618000D7
:104DC000086100BF002003F03BF8F92000904FF08D
:104DD00080702F49086140000861BDF800002B4930
:104DE00008604FF400002A490861802008618000B3
:104DF000086100BF062003F023F8102003F020F81C
:104E0000292003F01DF8002003F01AF83A20009042
:104E10004FF080701E49086140000861BDF8000035
:104E20001A4908604FF400001949086180200861A0
:104E30008000086100BF552003F002F811200090A7
:104E40004FF080701249086140000861BDF8000011
:104E50000E4908604FF400000D4908618020086188
:104E60008000086100BF6420FDF71EFE292000902D
:104E70004FF080700649086140000861BDF80000ED
:104E8000024908604FF40000014903E00C0C0140A6
:104E9000001001400861802008618000086100BFA7
:104EA000352000904FF08070086140000861BDF827
:104EB0000000364908604FF4000035490861802041
:104EC00008618000086100BF002002F0B9FF512096
:104ED00000904FF080702E49086140000861BDF8D5
:104EE00000002A4908604FF4000029490861802029
:104EF00008618000086100BFFF2002F0A1FF53207D
:104F000000904FF080702249086140000861BDF8B0
:104F100000001E4908604FF400001D490861802010
:104F200008618000086100BF2C2002F089FF552035
:104F300000904FF080701649086140000861BDF88C
:104F40000000124908604FF40000114908618020F8
:104F500008618000086100BF822002F071FF2C20F0
:104F600000904FF080700A49086140000861BDF868
:104F70000000064908604FF40000054908618020E0
:104F800008618000086100BF08BD00000C0C0140F2
:104F90000010014008B555214FF4704002F064FF45
:104FA000AA214FF2010002F05FFF52214FF20200EE
:104FB00002F05AFF08214FF2030002F055FF0121D1
:104FC0004FF2040002F050FF0D214FF4304002F088
:104FD0004BFF0D214BF2010002F046FF0D214BF279
:104FE000020002F041FF34214FF4364002F03CFF52
:104FF00034214BF2016002F037FF34214BF20260A2
:1050000002F032FF0D214FF4314002F02DFF0D214F
:105010004BF2011002F028FF0D214BF2021002F0BA
:1050200023FF34214FF4374002F01EFF34214BF2AE
:10503000017002F019FF34214BF2027002F014FFEC
:1050400000214FF4324002F00FFF00214BF201200B
:1050500002F00AFF00214BF2022002F005FF24219A
:105060004FF4384002F000FF24214BF6010002F01B
:10507000FBFE24214BF6020002F0F6FE01214FF464
:105080003F4002F0F1FE0F214FF4334002F0ECFEFE
:105090000F214BF2013002F0E7FE0F214BF20230FC
:1050A00002F0E2FE34214FF4394002F0DDFE3421FB
:1050B0004BF6011002F0D8FE34214BF6021002F03C
:1050C000D3FE08214FF4354002F0CEFE08214BF20A
:1050D000015002F0C9FE08214BF2025002F0C4FE5A
:1050E00003214FF4424002F0BFFE24214FF43A4026
:1050F00002F0BAFE24214BF6012002F0B5FE242175
:105100004BF6022002F0B0FE00214FF43C4002F0CA
:10511000ABFE78214BF6014002F0A6FE00214BF6D3
:10512000024002F0A1FE00214FF43D4002F09CFE3F
:1051300078214BF6015002F097FE00214BF6025009
:1051400002F092FE00214FF43E4002F08DFE6421F9
:105150004BF6016002F088FE00214FF4514002F04E
:1051600083FE33214DF2011002F07EFE00214DF24C
:10517000021002F079FE34214DF2031002F074FEA9
:1051800000214DF2041002F06FFE3A214DF205109D
:1051900002F06AFE00214DF2061002F065FE4A217F
:1051A0004DF2071002F060FE00214DF2081002F0EF
:1051B0005BFE5C214DF2091002F056FE00214DF21B
:1051C0000A1002F051FE81214DF20B1002F04CFE4C
:1051D00000214DF20C1002F047FEA6214DF20D10F9
:1051E00002F042FE00214DF20E1002F03DFEE521DC
:1051F0004DF20F1002F038FE01214DF2101002F0B6
:1052000033FE13214DF2111002F02EFE01214DF25A
:10521000121002F029FE54214DF2131002F024FE68
:1052200001214DF2141002F01FFE82214DF21510E3
:1052300002F01AFE01214DF2161002F015FECA21ED
:105240004DF2171002F010FE02214DF2181002F07C
:105250000BFE00214DF2191002F006FE02214DF264
:105260001A1002F001FE01214DF21B1002F0FCFDAC
:1052700002214DF21C1002F0F7FD34214DF21D10F9
:1052800002F0F2FD02214DF21E1002F0EDFD672149
:105290004DF21F1002F0E8FD02214DF2201002F045
:1052A000E3FD84214DF2211002F0DEFD02214DF2DA
:1052B000221002F0D9FDA4214DF2231002F0D4FDFA
:1052C00002214DF2241002F0CFFDB7214DF225103E
:1052D00002F0CAFD02214DF2261002F0C5FDCF21D9
:1052E0004DF2271002F0C0FD02214DF2281002F00D
:1052F000BBFDDE214DF2291002F0B6FD02214DF278
:105300002A1002F0B1FDF2214DF22B1002F0ACFD9B
:1053100002214DF22C1002F0A7FDFE214DF22D10BE
:1053200002F0A2FD03214DF22E1002F09DFD10218E
:105330004DF22F1002F098FD03214DF2301002F0D3
:1053400093FD33214DF2311002F08EFD03214DF219
:10535000321002F089FD6D214DF2331002F084FD10
:1053600000214FF4524002F07FFD33214DF2012025
:1053700002F07AFD00214DF2022002F075FD342189
:105380004DF2032002F070FD00214DF2042002F0E6
:105390006BFD3A214DF2052002F066FD00214DF231
:1053A000062002F061FD4A214DF2072002F05CFD6B
:1053B00000214DF2082002F057FD5C214DF209203A
:1053C00002F052FD00214DF20A2002F04DFD812134
:1053D0004DF20B2002F048FD00214DF20C2002F0AE
:1053E00043FDA6214DF20D2002F03EFD00214DF2BD
:1053F0000E2002F039FDE5214DF20F2002F034FDC0
:1054000001214DF2102002F02FFD13214DF2112049
:1054100002F02AFD01214DF2122002F025FD542157
:105420004DF2132002F020FD01214DF2142002F074
:105430001BFD82214DF2152002F016FD01214DF2D7
:10544000162002F011FDCA214DF2172002F00CFDCA
:1054500002214DF2182002F007FD00214DF2192023
:1054600002F002FD02214DF21A2002F0FDFC0121A2
:105470004DF21B2002F0F8FC02214DF21C2002F03C
:10548000F3FC34214DF21D2002F0EEFC02214DF21E
:105490001E2002F0E9FC67214DF21F2002F0E4FC1F
:1054A00002214DF2202002F0DFFC84214DF2212068
:1054B00002F0DAFC02214DF2222002F0D5FCA421F8
:1054C0004DF2232002F0D0FC02214DF2242002F004
:1054D000CBFCB7214DF2252002F0C6FC02214DF293
:1054E000262002F0C1FCCF214DF2272002F0BCFCA7
:1054F00002214DF2282002F0B7FCDE214DF22920D6
:1055000002F0B2FC02214DF22A2002F0ADFCF221A1
:105510004DF22B2002F0A8FC02214DF22C2002F0CB
:10552000A3FCFE214DF22D2002F09EFC03214DF242
:105530002E2002F099FC10214DF22F2002F094FC55
:1055400003214DF2302002F08FFC33214DF2312047
:1055500002F08AFC03214DF2322002F085FC6D211D
:105560004DF2332002F080FC00214FF4534002F052
:105570007BFC33214DF2013002F076FC00214DF22C
:10558000023002F071FC34214DF2033002F06CFC69
:1055900000214DF2043002F067FC3A214DF2053053
:1055A00002F062FC00214DF2063002F05DFC4A215F
:1055B0004DF2073002F058FC00214DF2083002F0A5
:1055C00053FC5C214DF2093002F04EFC00214DF2FB
:1055D0000A3002F049FC81214DF20B3002F044FC0C
:1055E00000214DF20C3002F03FFCA6214DF20D30AF
:1055F00002F03AFC00214DF20E3002F035FCE521BC
:105600004DF20F3002F030FC01214DF2103002F06B
:105610002BFC13214DF2113002F026FC01214DF23A
:10562000123002F021FC54214DF2133002F01CFC28
:1056300001214DF2143002F017FC82214DF2153099
:1056400002F012FC01214DF2163002F00DFCCA21CD
:105650004DF2173002F008FC02214DF2183002F032
:1056600003FC00214DF2193002F0FEFB02214DF245
:105670001A3002F0F9FB01214DF21B3002F0F4FB6D
:1056800002214DF21C3002F0EFFB34214DF21D30AF
:1056900002F0EAFB02214DF21E3002F0E5FB672129
:1056A0004DF21F3002F0E0FB02214DF2203002F0FB
:1056B000DBFB84214DF2213002F0D6FB02214DF2BA
:1056C000223002F0D1FBA4214DF2233002F0CCFBBA
:1056D00002214DF2243002F0C7FBB7214DF22530F4
:1056E00002F0C2FB02214DF2263002F0BDFBCF21B9
:1056F0004DF2273002F0B8FB02214DF2283002F0C3
:10570000B3FBDE214DF2293002F0AEFB02214DF257
:105710002A3002F0A9FBF2214DF22B3002F0A4FB5B
:1057200002214DF22C3002F09FFBFE214DF22D3074
:1057300002F09AFB03214DF22E3002F095FB10216E
:105740004DF22F3002F090FB03214DF2303002F089
:105750008BFB33214DF2313002F086FB03214DF2F9
:10576000323002F081FB6D214DF2333002F07CFBD0
:1057700000214FF4544002F077FB33214DF20140F9
:1057800002F072FB00214DF2024002F06DFB342169
:105790004DF2034002F068FB00214DF2044002F09C
:1057A00063FB3A214DF2054002F05EFB00214DF211
:1057B000064002F059FB4A214DF2074002F054FB2B
:1057C00000214DF2084002F04FFB5C214DF20940F0
:1057D00002F04AFB00214DF20A4002F045FB812114
:1057E0004DF20B4002F040FB00214DF20C4002F064
:1057F0003BFBA6214DF20D4002F036FB00214DF29D
:105800000E4002F031FBE5214DF20F4002F02CFB7F
:1058100001214DF2104002F027FB13214DF21140FF
:1058200002F022FB01214DF2124002F01DFB542137
:105830004DF2134002F018FB01214DF2144002F02A
:1058400013FB82214DF2154002F00EFB01214DF2B7
:10585000164002F009FBCA214DF2174002F004FB8A
:1058600002214DF2184002F0FFFA00214DF21940DA
:1058700002F0FAFA02214DF21A4002F0F5FA012183
:105880004DF21B4002F0F0FA02214DF21C4002F0F2
:10589000EBFA34214DF21D4002F0E6FA02214DF2FE
:1058A0001E4002F0E1FA67214DF21F4002F0DCFADF
:1058B00002214DF2204002F0D7FA84214DF221401E
:1058C00002F0D2FA02214DF2224002F0CDFAA421D8
:1058D0004DF2234002F0C8FA02214DF2244002F0BA
:1058E000C3FAB7214DF2254002F0BEFA02214DF273
:1058F000264002F0B9FACF214DF2274002F0B4FA67
:1059000002214DF2284002F0AFFADE214DF229408B
:1059100002F0AAFA02214DF22A4002F0A5FAF22181
:105920004DF22B4002F0A0FA02214DF22C4002F081
:105930009BFAFE214DF22D4002F096FA03214DF222
:105940002E4002F091FA10214DF22F4002F08CFA15
:1059500003214DF2304002F087FA33214DF23140FD
:1059600002F082FA03214DF2324002F07DFA6D21FD
:105970004DF2334002F078FA00214FF4554002F026
:1059800073FA33214DF2015002F06EFA00214DF20C
:10599000025002F069FA34214DF2035002F064FA29
:1059A00000214DF2045002F05FFA3A214DF2055009
:1059B00002F05AFA00214DF2065002F055FA4A213F
:1059C0004DF2075002F050FA00214DF2085002F05B
:1059D0004BFA5C214DF2095002F046FA00214DF2DB
:1059E0000A5002F041FA81214DF20B5002F03CFACC
:1059F00000214DF20C5002F037FAA6214DF20D5065
:105A000002F032FA00214DF20E5002F02DFAE5219B
:105A10004DF20F5002F028FA01214DF2105002F021
:105A200023FA13214DF2115002F01EFA01214DF21A
:105A3000125002F019FA54214DF2135002F014FAE8
:105A400001214DF2145002F00FFA82214DF215504F
:105A500002F00AFA01214DF2165002F005FACA21AD
:105A60004DF2175002F000FA02214DF2185002F0E8
:105A7000FBF900214DF2195002F0F6F902214DF226
:105A80001A5002F0F1F901214DF21B5002F0ECF92D
:105A900002214DF21C5002F0E7F934214DF21D5065
:105AA00002F0E2F902214DF21E5002F0DDF9672109
:105AB0004DF21F5002F0D8F902214DF2205002F0B1
:105AC000D3F984214DF2215002F0CEF902214DF29A
:105AD000225002F0C9F9A4214DF2235002F0C4F97A
